{
  "_format": "hh-sol-artifact-1",
  "contractName": "Message",
  "sourceName": "contracts/Message.sol",
  "abi": [
    {
      "inputs": [],
      "stateMutability": "nonpayable",
      "type": "constructor"
    },
    {
      "anonymous": false,
      "inputs": [
        {
          "indexed": false,
          "internalType": "address",
          "name": "previousOwner",
          "type": "address"
        },
        {
          "indexed": false,
          "internalType": "address",
          "name": "newOwner",
          "type": "address"
        }
      ],
      "name": "OwnerShipTransfer",
      "type": "event"
    },
    {
      "anonymous": false,
      "inputs": [
        {
          "indexed": false,
          "internalType": "address",
          "name": "setter",
          "type": "address"
        },
        {
          "indexed": false,
          "internalType": "string",
          "name": "message",
          "type": "string"
        }
      ],
      "name": "messageSet",
      "type": "event"
    },
    {
      "inputs": [],
      "name": "getMessage",
      "outputs": [
        {
          "internalType": "string",
          "name": "message_",
          "type": "string"
        }
      ],
      "stateMutability": "view",
      "type": "function"
    },
    {
      "inputs": [],
      "name": "message",
      "outputs": [
        {
          "internalType": "string",
          "name": "",
          "type": "string"
        }
      ],
      "stateMutability": "view",
      "type": "function"
    },
    {
      "inputs": [],
      "name": "owner",
      "outputs": [
        {
          "internalType": "address",
          "name": "",
          "type": "address"
        }
      ],
      "stateMutability": "view",
      "type": "function"
    },
    {
      "inputs": [
        {
          "internalType": "string",
          "name": "_message",
          "type": "string"
        }
      ],
      "name": "setMessage",
      "outputs": [],
      "stateMutability": "nonpayable",
      "type": "function"
    },
    {
      "inputs": [
        {
          "internalType": "address",
          "name": "_newOwner",
          "type": "address"
        }
      ],
      "name": "transferOwnership",
      "outputs": [],
      "stateMutability": "nonpayable",
      "type": "function"
    }
  ],
  "bytecode": "0x6080604052348015600f57600080fd5b50336000806101000a81548173ffffffffffffffffffffffffffffffffffffffff021916908373ffffffffffffffffffffffffffffffffffffffff160217905550610cee8061005f6000396000f3fe608060405234801561001057600080fd5b50600436106100575760003560e01c8063368b87721461005c5780638da5cb5b14610078578063ce6d41de14610096578063e21f37ce146100b4578063f2fde38b146100d2575b600080fd5b6100766004803603810190610071919061066e565b6100ee565b005b610080610237565b60405161008d91906106f8565b60405180910390f35b61009e61025b565b6040516100ab9190610792565b60405180910390f35b6100bc6102ed565b6040516100c99190610792565b60405180910390f35b6100ec60048036038101906100e791906107e0565b61037b565b005b600073ffffffffffffffffffffffffffffffffffffffff163373ffffffffffffffffffffffffffffffffffffffff160361015d576040517f08c379a000000000000000000000000000000000000000000000000000000000815260040161015490610859565b60405180910390fd5b60008054906101000a900473ffffffffffffffffffffffffffffffffffffffff1673ffffffffffffffffffffffffffffffffffffffff163373ffffffffffffffffffffffffffffffffffffffff16146101eb576040517f08c379a00000000000000000000000000000000000000000000000000000000081526004016101e2906108c5565b60405180910390fd5b80600190816101fa9190610afb565b507f416b2042c0ba287999c0e14ca8b905a45c10c23a3cfdaf789d34595c96bc727d338260405161022c929190610bcd565b60405180910390a150565b60008054906101000a900473ffffffffffffffffffffffffffffffffffffffff1681565b60606001805461026a90610914565b80601f016020809104026020016040519081016040528092919081815260200182805461029690610914565b80156102e35780601f106102b8576101008083540402835291602001916102e3565b820191906000526020600020905b8154815290600101906020018083116102c657829003601f168201915b5050505050905090565b600180546102fa90610914565b80601f016020809104026020016040519081016040528092919081815260200182805461032690610914565b80156103735780601f1061034857610100808354040283529160200191610373565b820191906000526020600020905b81548152906001019060200180831161035657829003601f168201915b505050505081565b60008054906101000a900473ffffffffffffffffffffffffffffffffffffffff1673ffffffffffffffffffffffffffffffffffffffff163373ffffffffffffffffffffffffffffffffffffffff1614610409576040517f08c379a0000000000000000000000000000000000000000000000000000000008152600401610400906108c5565b60405180910390fd5b600073ffffffffffffffffffffffffffffffffffffffff168173ffffffffffffffffffffffffffffffffffffffff1603610478576040517f08c379a000000000000000000000000000000000000000000000000000000000815260040161046f90610c6f565b60405180910390fd5b7f39aa7b32e39346e4d63b7af2df2424277168303b5e5a6e01b6b1a014d501a7ab60008054906101000a900473ffffffffffffffffffffffffffffffffffffffff16826040516104c9929190610c8f565b60405180910390a1806000806101000a81548173ffffffffffffffffffffffffffffffffffffffff021916908373ffffffffffffffffffffffffffffffffffffffff16021790555050565b6000604051905090565b600080fd5b600080fd5b600080fd5b600080fd5b6000601f19601f8301169050919050565b7f4e487b7100000000000000000000000000000000000000000000000000000000600052604160045260246000fd5b61057b82610532565b810181811067ffffffffffffffff8211171561059a57610599610543565b5b80604052505050565b60006105ad610514565b90506105b98282610572565b919050565b600067ffffffffffffffff8211156105d9576105d8610543565b5b6105e282610532565b9050602081019050919050565b82818337600083830152505050565b600061061161060c846105be565b6105a3565b90508281526020810184848401111561062d5761062c61052d565b5b6106388482856105ef565b509392505050565b600082601f83011261065557610654610528565b5b81356106658482602086016105fe565b91505092915050565b6000602082840312156106845761068361051e565b5b600082013567ffffffffffffffff8111156106a2576106a1610523565b5b6106ae84828501610640565b91505092915050565b600073ffffffffffffffffffffffffffffffffffffffff82169050919050565b60006106e2826106b7565b9050919050565b6106f2816106d7565b82525050565b600060208201905061070d60008301846106e9565b92915050565b600081519050919050565b600082825260208201905092915050565b60005b8381101561074d578082015181840152602081019050610732565b60008484015250505050565b600061076482610713565b61076e818561071e565b935061077e81856020860161072f565b61078781610532565b840191505092915050565b600060208201905081810360008301526107ac8184610759565b905092915050565b6107bd816106d7565b81146107c857600080fd5b50565b6000813590506107da816107b4565b92915050565b6000602082840312156107f6576107f561051e565b5b6000610804848285016107cb565b91505092915050565b7f596f752063616e27742073657420796f7572206f776e206d6573736167650000600082015250565b6000610843601e8361071e565b915061084e8261080d565b602082019050919050565b6000602082019050818103600083015261087281610836565b9050919050565b7f596f75206172656e277420746865206f776e6572000000000000000000000000600082015250565b60006108af60148361071e565b91506108ba82610879565b602082019050919050565b600060208201905081810360008301526108de816108a2565b9050919050565b7f4e487b7100000000000000000000000000000000000000000000000000000000600052602260045260246000fd5b6000600282049050600182168061092c57607f821691505b60208210810361093f5761093e6108e5565b5b50919050565b60008190508160005260206000209050919050565b60006020601f8301049050919050565b600082821b905092915050565b6000600883026109a77fffffffffffffffffffffffffffffffffffffffffffffffffffffffffffffffff8261096a565b6109b1868361096a565b95508019841693508086168417925050509392505050565b6000819050919050565b6000819050919050565b60006109f86109f36109ee846109c9565b6109d3565b6109c9565b9050919050565b6000819050919050565b610a12836109dd565b610a26610a1e826109ff565b848454610977565b825550505050565b600090565b610a3b610a2e565b610a46818484610a09565b505050565b5b81811015610a6a57610a5f600082610a33565b600181019050610a4c565b5050565b601f821115610aaf57610a8081610945565b610a898461095a565b81016020851015610a98578190505b610aac610aa48561095a565b830182610a4b565b50505b505050565b600082821c905092915050565b6000610ad260001984600802610ab4565b1980831691505092915050565b6000610aeb8383610ac1565b9150826002028217905092915050565b610b0482610713565b67ffffffffffffffff811115610b1d57610b1c610543565b5b610b278254610914565b610b32828285610a6e565b600060209050601f831160018114610b655760008415610b53578287015190505b610b5d8582610adf565b865550610bc5565b601f198416610b7386610945565b60005b82811015610b9b57848901518255600182019150602085019450602081019050610b76565b86831015610bb85784890151610bb4601f891682610ac1565b8355505b6001600288020188555050505b505050505050565b6000604082019050610be260008301856106e9565b8181036020830152610bf48184610759565b90509392505050565b7f596f752063616e2774207472616e73666572206f776e65727368697020746f2060008201527f7a65726f20616464726573730000000000000000000000000000000000000000602082015250565b6000610c59602c8361071e565b9150610c6482610bfd565b604082019050919050565b60006020820190508181036000830152610c8881610c4c565b9050919050565b6000604082019050610ca460008301856106e9565b610cb160208301846106e9565b939250505056fea264697066735822122071a532b605ce97d1cf9bd4b8d623c46eb28483add8d59f6fb983e86b857e483364736f6c634300081b0033",
  "linkReferences": {},
  "deployedLinkReferences": {}
}